{
  "_format": "hh-sol-artifact-1",
  "contractName": "DailyRewards",
  "sourceName": "contracts/DailyRewards.sol",
  "abi": [
    {
      "inputs": [
        {
          "internalType": "address",
          "name": "tokenAddress",
          "type": "address"
        }
      ],
      "stateMutability": "nonpayable",
      "type": "constructor"
    },
    {
      "anonymous": false,
      "inputs": [
        {
          "indexed": true,
          "internalType": "address",
          "name": "user",
          "type": "address"
        },
        {
          "indexed": true,
          "internalType": "uint32",
          "name": "achievementId",
          "type": "uint32"
        }
      ],
      "name": "AchievementCompleted",
      "type": "event"
    },
    {
      "anonymous": false,
      "inputs": [
        {
          "indexed": true,
          "internalType": "uint32",
          "name": "id",
          "type": "uint32"
        },
        {
          "indexed": false,
          "internalType": "string",
          "name": "name",
          "type": "string"
        },
        {
          "indexed": false,
          "internalType": "uint256",
          "name": "rewardAmount",
          "type": "uint256"
        }
      ],
      "name": "AchievementCreated",
      "type": "event"
    },
    {
      "anonymous": false,
      "inputs": [
        {
          "indexed": true,
          "internalType": "address",
          "name": "user",
          "type": "address"
        },
        {
          "indexed": false,
          "internalType": "uint32",
          "name": "currentStreak",
          "type": "uint32"
        },
        {
          "indexed": false,
          "internalType": "uint256",
          "name": "rewardAmount",
          "type": "uint256"
        }
      ],
      "name": "DailyCheckIn",
      "type": "event"
    },
    {
      "anonymous": false,
      "inputs": [
        {
          "indexed": true,
          "internalType": "address",
          "name": "previousOwner",
          "type": "address"
        },
        {
          "indexed": true,
          "internalType": "address",
          "name": "newOwner",
          "type": "address"
        }
      ],
      "name": "OwnershipTransferred",
      "type": "event"
    },
    {
      "anonymous": false,
      "inputs": [
        {
          "indexed": true,
          "internalType": "address",
          "name": "user",
          "type": "address"
        },
        {
          "indexed": true,
          "internalType": "bytes32",
          "name": "rewardId",
          "type": "bytes32"
        },
        {
          "indexed": false,
          "internalType": "uint256",
          "name": "amount",
          "type": "uint256"
        }
      ],
      "name": "RewardClaimed",
      "type": "event"
    },
    {
      "anonymous": false,
      "inputs": [
        {
          "indexed": false,
          "internalType": "uint32",
          "name": "minInterval",
          "type": "uint32"
        },
        {
          "indexed": false,
          "internalType": "uint32",
          "name": "maxInterval",
          "type": "uint32"
        },
        {
          "indexed": false,
          "internalType": "uint256",
          "name": "baseReward",
          "type": "uint256"
        },
        {
          "indexed": false,
          "internalType": "uint256",
          "name": "bonusMultiplier",
          "type": "uint256"
        }
      ],
      "name": "RewardParametersUpdated",
      "type": "event"
    },
    {
      "inputs": [
        {
          "internalType": "uint32",
          "name": "",
          "type": "uint32"
        }
      ],
      "name": "achievements",
      "outputs": [
        {
          "internalType": "uint32",
          "name": "id",
          "type": "uint32"
        },
        {
          "internalType": "string",
          "name": "name",
          "type": "string"
        },
        {
          "internalType": "string",
          "name": "description",
          "type": "string"
        },
        {
          "internalType": "enum DailyRewards.AchievementType",
          "name": "achievementType",
          "type": "uint8"
        },
        {
          "internalType": "uint256",
          "name": "rewardAmount",
          "type": "uint256"
        },
        {
          "internalType": "uint32",
          "name": "requiredProgress",
          "type": "uint32"
        }
      ],
      "stateMutability": "view",
      "type": "function"
    },
    {
      "inputs": [],
      "name": "baseRewardAmount",
      "outputs": [
        {
          "internalType": "uint256",
          "name": "",
          "type": "uint256"
        }
      ],
      "stateMutability": "view",
      "type": "function"
    },
    {
      "inputs": [
        {
          "internalType": "bytes32",
          "name": "rewardId",
          "type": "bytes32"
        }
      ],
      "name": "claimReward",
      "outputs": [],
      "stateMutability": "nonpayable",
      "type": "function"
    },
    {
      "inputs": [
        {
          "internalType": "bytes32",
          "name": "",
          "type": "bytes32"
        }
      ],
      "name": "claimableRewards",
      "outputs": [
        {
          "internalType": "bytes32",
          "name": "id",
          "type": "bytes32"
        },
        {
          "internalType": "address",
          "name": "user",
          "type": "address"
        },
        {
          "internalType": "uint32",
          "name": "achievementId",
          "type": "uint32"
        },
        {
          "internalType": "uint256",
          "name": "amount",
          "type": "uint256"
        },
        {
          "internalType": "uint64",
          "name": "createdAt",
          "type": "uint64"
        },
        {
          "internalType": "bool",
          "name": "claimed",
          "type": "bool"
        },
        {
          "internalType": "uint64",
          "name": "claimedAt",
          "type": "uint64"
        }
      ],
      "stateMutability": "view",
      "type": "function"
    },
    {
      "inputs": [
        {
          "internalType": "string",
          "name": "name",
          "type": "string"
        },
        {
          "internalType": "string",
          "name": "description",
          "type": "string"
        },
        {
          "internalType": "enum DailyRewards.AchievementType",
          "name": "achievementType",
          "type": "uint8"
        },
        {
          "internalType": "uint256",
          "name": "rewardAmount",
          "type": "uint256"
        },
        {
          "internalType": "uint32",
          "name": "requiredProgress",
          "type": "uint32"
        }
      ],
      "name": "createAchievement",
      "outputs": [
        {
          "internalType": "uint32",
          "name": "",
          "type": "uint32"
        }
      ],
      "stateMutability": "nonpayable",
      "type": "function"
    },
    {
      "inputs": [],
      "name": "cycleStreakToken",
      "outputs": [
        {
          "internalType": "contract CycleStreakToken",
          "name": "",
          "type": "address"
        }
      ],
      "stateMutability": "view",
      "type": "function"
    },
    {
      "inputs": [],
      "name": "dailyCheckIn",
      "outputs": [],
      "stateMutability": "nonpayable",
      "type": "function"
    },
    {
      "inputs": [],
      "name": "getAchievements",
      "outputs": [
        {
          "components": [
            {
              "internalType": "uint32",
              "name": "id",
              "type": "uint32"
            },
            {
              "internalType": "string",
              "name": "name",
              "type": "string"
            },
            {
              "internalType": "string",
              "name": "description",
              "type": "string"
            },
            {
              "internalType": "enum DailyRewards.AchievementType",
              "name": "achievementType",
              "type": "uint8"
            },
            {
              "internalType": "uint256",
              "name": "rewardAmount",
              "type": "uint256"
            },
            {
              "internalType": "uint32",
              "name": "requiredProgress",
              "type": "uint32"
            }
          ],
          "internalType": "struct DailyRewards.Achievement[]",
          "name": "",
          "type": "tuple[]"
        }
      ],
      "stateMutability": "view",
      "type": "function"
    },
    {
      "inputs": [
        {
          "internalType": "address",
          "name": "user",
          "type": "address"
        }
      ],
      "name": "getUserProgress",
      "outputs": [
        {
          "components": [
            {
              "internalType": "uint32",
              "name": "achievementId",
              "type": "uint32"
            },
            {
              "internalType": "uint32",
              "name": "currentValue",
              "type": "uint32"
            },
            {
              "internalType": "bool",
              "name": "completed",
              "type": "bool"
            },
            {
              "internalType": "uint64",
              "name": "completedAt",
              "type": "uint64"
            }
          ],
          "internalType": "struct DailyRewards.Progress[]",
          "name": "",
          "type": "tuple[]"
        }
      ],
      "stateMutability": "view",
      "type": "function"
    },
    {
      "inputs": [
        {
          "internalType": "address",
          "name": "user",
          "type": "address"
        }
      ],
      "name": "getUserRewards",
      "outputs": [
        {
          "components": [
            {
              "internalType": "bytes32",
              "name": "id",
              "type": "bytes32"
            },
            {
              "internalType": "address",
              "name": "user",
              "type": "address"
            },
            {
              "internalType": "uint32",
              "name": "achievementId",
              "type": "uint32"
            },
            {
              "internalType": "uint256",
              "name": "amount",
              "type": "uint256"
            },
            {
              "internalType": "uint64",
              "name": "createdAt",
              "type": "uint64"
            },
            {
              "internalType": "bool",
              "name": "claimed",
              "type": "bool"
            },
            {
              "internalType": "uint64",
              "name": "claimedAt",
              "type": "uint64"
            }
          ],
          "internalType": "struct DailyRewards.ClaimableReward[]",
          "name": "",
          "type": "tuple[]"
        }
      ],
      "stateMutability": "view",
      "type": "function"
    },
    {
      "inputs": [
        {
          "internalType": "address",
          "name": "user",
          "type": "address"
        }
      ],
      "name": "getUserStreak",
      "outputs": [
        {
          "components": [
            {
              "internalType": "uint64",
              "name": "lastCheckInTimestamp",
              "type": "uint64"
            },
            {
              "internalType": "uint32",
              "name": "currentStreak",
              "type": "uint32"
            },
            {
              "internalType": "uint32",
              "name": "longestStreak",
              "type": "uint32"
            },
            {
              "internalType": "uint32",
              "name": "dailyRewardsCount",
              "type": "uint32"
            },
            {
              "internalType": "uint32",
              "name": "totalRewardsCount",
              "type": "uint32"
            }
          ],
          "internalType": "struct DailyRewards.UserStreak",
          "name": "",
          "type": "tuple"
        }
      ],
      "stateMutability": "view",
      "type": "function"
    },
    {
      "inputs": [],
      "name": "maximumCheckInInterval",
      "outputs": [
        {
          "internalType": "uint32",
          "name": "",
          "type": "uint32"
        }
      ],
      "stateMutability": "view",
      "type": "function"
    },
    {
      "inputs": [],
      "name": "minimumCheckInInterval",
      "outputs": [
        {
          "internalType": "uint32",
          "name": "",
          "type": "uint32"
        }
      ],
      "stateMutability": "view",
      "type": "function"
    },
    {
      "inputs": [],
      "name": "owner",
      "outputs": [
        {
          "internalType": "address",
          "name": "",
          "type": "address"
        }
      ],
      "stateMutability": "view",
      "type": "function"
    },
    {
      "inputs": [],
      "name": "renounceOwnership",
      "outputs": [],
      "stateMutability": "nonpayable",
      "type": "function"
    },
    {
      "inputs": [],
      "name": "streakBonusMultiplier",
      "outputs": [
        {
          "internalType": "uint256",
          "name": "",
          "type": "uint256"
        }
      ],
      "stateMutability": "view",
      "type": "function"
    },
    {
      "inputs": [
        {
          "internalType": "address",
          "name": "newOwner",
          "type": "address"
        }
      ],
      "name": "transferOwnership",
      "outputs": [],
      "stateMutability": "nonpayable",
      "type": "function"
    },
    {
      "inputs": [
        {
          "internalType": "address",
          "name": "user",
          "type": "address"
        },
        {
          "internalType": "uint32",
          "name": "achievementId",
          "type": "uint32"
        },
        {
          "internalType": "uint32",
          "name": "progressValue",
          "type": "uint32"
        }
      ],
      "name": "updateProgress",
      "outputs": [],
      "stateMutability": "nonpayable",
      "type": "function"
    },
    {
      "inputs": [
        {
          "internalType": "uint32",
          "name": "minInterval",
          "type": "uint32"
        },
        {
          "internalType": "uint32",
          "name": "maxInterval",
          "type": "uint32"
        },
        {
          "internalType": "uint256",
          "name": "baseReward",
          "type": "uint256"
        },
        {
          "internalType": "uint256",
          "name": "bonusMultiplier",
          "type": "uint256"
        }
      ],
      "name": "updateRewardParameters",
      "outputs": [],
      "stateMutability": "nonpayable",
      "type": "function"
    },
    {
      "inputs": [
        {
          "internalType": "address",
          "name": "",
          "type": "address"
        },
        {
          "internalType": "uint32",
          "name": "",
          "type": "uint32"
        }
      ],
      "name": "userProgress",
      "outputs": [
        {
          "internalType": "uint32",
          "name": "achievementId",
          "type": "uint32"
        },
        {
          "internalType": "uint32",
          "name": "currentValue",
          "type": "uint32"
        },
        {
          "internalType": "bool",
          "name": "completed",
          "type": "bool"
        },
        {
          "internalType": "uint64",
          "name": "completedAt",
          "type": "uint64"
        }
      ],
      "stateMutability": "view",
      "type": "function"
    },
    {
      "inputs": [
        {
          "internalType": "address",
          "name": "",
          "type": "address"
        },
        {
          "internalType": "uint256",
          "name": "",
          "type": "uint256"
        }
      ],
      "name": "userRewards",
      "outputs": [
        {
          "internalType": "bytes32",
          "name": "",
          "type": "bytes32"
        }
      ],
      "stateMutability": "view",
      "type": "function"
    },
    {
      "inputs": [
        {
          "internalType": "address",
          "name": "",
          "type": "address"
        }
      ],
      "name": "userStreaks",
      "outputs": [
        {
          "internalType": "uint64",
          "name": "lastCheckInTimestamp",
          "type": "uint64"
        },
        {
          "internalType": "uint32",
          "name": "currentStreak",
          "type": "uint32"
        },
        {
          "internalType": "uint32",
          "name": "longestStreak",
          "type": "uint32"
        },
        {
          "internalType": "uint32",
          "name": "dailyRewardsCount",
          "type": "uint32"
        },
        {
          "internalType": "uint32",
          "name": "totalRewardsCount",
          "type": "uint32"
        }
      ],
      "stateMutability": "view",
      "type": "function"
    }
  ],
  "bytecode": "0x608060405262011940600960006101000a81548163ffffffff021916908363ffffffff1602179055506202a300600960046101000a81548163ffffffff021916908363ffffffff160217905550678ac7230489e80000600a556001600b553480156200006a57600080fd5b5060405162004aff38038062004aff833981810160405281019062000090919062000815565b620000b0620000a46200012160201b60201c565b6200012960201b60201c565b6001808190555080600260006101000a81548173ffffffffffffffffffffffffffffffffffffffff021916908373ffffffffffffffffffffffffffffffffffffffff1602179055506200010a6008620001ed60201b60201c565b6200011a6200020360201b60201c565b5062000d1d565b600033905090565b60008060009054906101000a900473ffffffffffffffffffffffffffffffffffffffff169050816000806101000a81548173ffffffffffffffffffffffffffffffffffffffff021916908373ffffffffffffffffffffffffffffffffffffffff1602179055508173ffffffffffffffffffffffffffffffffffffffff168173ffffffffffffffffffffffffffffffffffffffff167f8be0079c531659141344cd1fd0a4f28419497f9722a3daafe3b4186f6b6457e060405160405180910390a35050565b6001816000016000828254019250508190555050565b6200028c6040518060400160405280600b81526020017f466972737420456e7472790000000000000000000000000000000000000000008152506040518060400160405280601d81526020017f5265636f726420796f7572206669727374206379636c6520656e7472790000008152506000678ac7230489e8000060016200052960201b60201c565b50620003176040518060400160405280600c81526020017f5765656b2057617272696f7200000000000000000000000000000000000000008152506040518060400160405280601d81526020017f547261636b20636f6e73697374656e746c7920666f722037206461797300000081525060016801158e460913d0000060076200052960201b60201c565b50620003a26040518060400160405280600e81526020017f4d6f6e74686c79204d61737465720000000000000000000000000000000000008152506040518060400160405280601e81526020017f547261636b20636f6e73697374656e746c7920666f722033302064617973000081525060026802b5e3af16b1880000601e6200052960201b60201c565b506200042d6040518060400160405280600e81526020017f4379636c65204368616d70696f6e0000000000000000000000000000000000008152506040518060400160405280601e81526020017f547261636b20636f6e73697374656e746c7920666f7220393020646179730000815250600368056bc75e2d63100000605a6200052960201b60201c565b506200049c6040518060400160405280601081526020017f4b6e6f776c65646765205365656b65720000000000000000000000000000000081525060405180606001604052806025815260200162004ada6025913960046801a055690d9db8000060056200052960201b60201c565b50620005266040518060400160405280601081526020017f436f6d6d756e697479204d656d626572000000000000000000000000000000008152506040518060400160405280601d81526020017f4a6f696e20746865204379636c65427564647920636f6d6d756e697479000000815250600767d02ab486cedc000060016200052960201b60201c565b50565b60006200053b620006e360201b60201c565b60006200054f60086200077460201b60201c565b9050620005636008620001ed60201b60201c565b60006040518060c001604052808363ffffffff1681526020018981526020018881526020018760098111156200059e576200059d62000847565b5b81526020018681526020018563ffffffff16815250905080600360008463ffffffff1663ffffffff16815260200190815260200160002060008201518160000160006101000a81548163ffffffff021916908363ffffffff160217905550602082015181600101908162000613919062000af0565b5060408201518160020190816200062b919062000af0565b5060608201518160030160006101000a81548160ff021916908360098111156200065a576200065962000847565b5b02179055506080820151816004015560a08201518160050160006101000a81548163ffffffff021916908363ffffffff1602179055509050508163ffffffff167ff378b71e8b598913f411e89b21138062426d7c60d8f40d78370b2fc233c3a17e8987604051620006cd92919062000c77565b60405180910390a2819250505095945050505050565b620006f36200012160201b60201c565b73ffffffffffffffffffffffffffffffffffffffff16620007196200078260201b60201c565b73ffffffffffffffffffffffffffffffffffffffff161462000772576040517f08c379a0000000000000000000000000000000000000000000000000000000008152600401620007699062000cfb565b60405180910390fd5b565b600081600001549050919050565b60008060009054906101000a900473ffffffffffffffffffffffffffffffffffffffff16905090565b600080fd5b600073ffffffffffffffffffffffffffffffffffffffff82169050919050565b6000620007dd82620007b0565b9050919050565b620007ef81620007d0565b8114620007fb57600080fd5b50565b6000815190506200080f81620007e4565b92915050565b6000602082840312156200082e576200082d620007ab565b5b60006200083e84828501620007fe565b91505092915050565b7f4e487b7100000000000000000000000000000000000000000000000000000000600052602160045260246000fd5b600081519050919050565b7f4e487b7100000000000000000000000000000000000000000000000000000000600052604160045260246000fd5b7f4e487b7100000000000000000000000000000000000000000000000000000000600052602260045260246000fd5b60006002820490506001821680620008f857607f821691505b6020821081036200090e576200090d620008b0565b5b50919050565b60008190508160005260206000209050919050565b60006020601f8301049050919050565b600082821b905092915050565b600060088302620009787fffffffffffffffffffffffffffffffffffffffffffffffffffffffffffffffff8262000939565b62000984868362000939565b95508019841693508086168417925050509392505050565b6000819050919050565b6000819050919050565b6000620009d1620009cb620009c5846200099c565b620009a6565b6200099c565b9050919050565b6000819050919050565b620009ed83620009b0565b62000a05620009fc82620009d8565b84845462000946565b825550505050565b600090565b62000a1c62000a0d565b62000a29818484620009e2565b505050565b5b8181101562000a515762000a4560008262000a12565b60018101905062000a2f565b5050565b601f82111562000aa05762000a6a8162000914565b62000a758462000929565b8101602085101562000a85578190505b62000a9d62000a948562000929565b83018262000a2e565b50505b505050565b600082821c905092915050565b600062000ac56000198460080262000aa5565b1980831691505092915050565b600062000ae0838362000ab2565b9150826002028217905092915050565b62000afb8262000876565b67ffffffffffffffff81111562000b175762000b1662000881565b5b62000b238254620008df565b62000b3082828562000a55565b600060209050601f83116001811462000b68576000841562000b53578287015190505b62000b5f858262000ad2565b86555062000bcf565b601f19841662000b788662000914565b60005b8281101562000ba25784890151825560018201915060208501945060208101905062000b7b565b8683101562000bc2578489015162000bbe601f89168262000ab2565b8355505b6001600288020188555050505b505050505050565b600082825260208201905092915050565b60005b8381101562000c0857808201518184015260208101905062000beb565b60008484015250505050565b6000601f19601f8301169050919050565b600062000c328262000876565b62000c3e818562000bd7565b935062000c5081856020860162000be8565b62000c5b8162000c14565b840191505092915050565b62000c71816200099c565b82525050565b6000604082019050818103600083015262000c93818562000c25565b905062000ca4602083018462000c66565b9392505050565b7f4f776e61626c653a2063616c6c6572206973206e6f7420746865206f776e6572600082015250565b600062000ce360208362000bd7565b915062000cf08262000cab565b602082019050919050565b6000602082019050818103600083015262000d168162000cd4565b9050919050565b613dad8062000d2d6000396000f3fe608060405234801561001057600080fd5b50600436106101425760003560e01c8063856dd0b0116100b85780639fb6018c1161007c5780639fb6018c14610384578063c57f2dfd146103b9578063d291d1f2146103e9578063f2fde38b1461041d578063f541402314610439578063f54b14bd1461045557610142565b8063856dd0b0146102de5780638da5cb5b146102fa5780638e4cc1081461031857806395f81150146103485780639c1a28931461036657610142565b806336b402611161010a57806336b40261146102075780634df6844714610223578063588ce98b1461024157806363c2a20a14610271578063715018a6146102a1578063784c6946146102ab57610142565b80630592700614610147578063078b0fb71461017d5780630aa471ee146101ad5780631576e89c146101cb57806319e67c3b146101e9575b600080fd5b610161600480360381019061015c91906123fb565b61045f565b60405161017497969594939291906124ee565b60405180910390f35b61019760048036038101906101929190612589565b610506565b6040516101a4919061274d565b60405180910390f35b6101b561073c565b6040516101c2919061276f565b60405180910390f35b6101d3610752565b6040516101e091906127e9565b60405180910390f35b6101f1610778565b6040516101fe919061276f565b60405180910390f35b610221600480360381019061021c919061285c565b61078e565b005b61022b610877565b6040516102389190612b1c565b60405180910390f35b61025b60048036038101906102569190612c98565b610b30565b604051610268919061276f565b60405180910390f35b61028b60048036038101906102869190612d4b565b610cc6565b6040516102989190612d8b565b60405180910390f35b6102a9610cf7565b005b6102c560048036038101906102c09190612da6565b610d0b565b6040516102d59493929190612de6565b60405180910390f35b6102f860048036038101906102f39190612e2b565b610d89565b005b610302610da1565b60405161030f9190612e7e565b60405180910390f35b610332600480360381019061032d9190612589565b610dca565b60405161033f9190612f9d565b60405180910390f35b610350610fa6565b60405161035d9190612fbf565b60405180910390f35b61036e610fac565b60405161037b9190612fbf565b60405180910390f35b61039e60048036038101906103999190612fda565b610fb2565b6040516103b096959493929190613060565b60405180910390f35b6103d360048036038101906103ce9190612589565b61112b565b6040516103e09190613137565b60405180910390f35b61040360048036038101906103fe9190612589565b61124e565b604051610414959493929190613152565b60405180910390f35b61043760048036038101906104329190612589565b6112d8565b005b610453600480360381019061044e91906123fb565b61135b565b005b61045d61155f565b005b60066020528060005260406000206000915090508060000154908060010160009054906101000a900473ffffffffffffffffffffffffffffffffffffffff16908060010160149054906101000a900463ffffffff16908060020154908060030160009054906101000a900467ffffffffffffffff16908060030160089054906101000a900460ff16908060030160099054906101000a900467ffffffffffffffff16905087565b60606000600760008473ffffffffffffffffffffffffffffffffffffffff1673ffffffffffffffffffffffffffffffffffffffff16815260200190815260200160002090506000818054905067ffffffffffffffff81111561056b5761056a612b48565b5b6040519080825280602002602001820160405280156105a457816020015b61059161225a565b8152602001906001900390816105895790505b50905060005b828054905081101561073157600660008483815481106105cd576105cc6131a5565b5b906000526020600020015481526020019081526020016000206040518060e0016040529081600082015481526020016001820160009054906101000a900473ffffffffffffffffffffffffffffffffffffffff1673ffffffffffffffffffffffffffffffffffffffff1673ffffffffffffffffffffffffffffffffffffffff1681526020016001820160149054906101000a900463ffffffff1663ffffffff1663ffffffff168152602001600282015481526020016003820160009054906101000a900467ffffffffffffffff1667ffffffffffffffff1667ffffffffffffffff1681526020016003820160089054906101000a900460ff161515151581526020016003820160099054906101000a900467ffffffffffffffff1667ffffffffffffffff1667ffffffffffffffff1681525050828281518110610713576107126131a5565b5b6020026020010181905250808061072990613203565b9150506105aa565b508092505050919050565b600960009054906101000a900463ffffffff1681565b600260009054906101000a900473ffffffffffffffffffffffffffffffffffffffff1681565b600960049054906101000a900463ffffffff1681565b610796611af1565b8263ffffffff168463ffffffff16106107e4576040517f08c379a00000000000000000000000000000000000000000000000000000000081526004016107db906132bd565b60405180910390fd5b83600960006101000a81548163ffffffff021916908363ffffffff16021790555082600960046101000a81548163ffffffff021916908363ffffffff16021790555081600a8190555080600b819055507fccfa0f25b7aefcb312ac7689343df4121f00cea34901e53e74ef98e504e548698484848460405161086994939291906132dd565b60405180910390a150505050565b6060600060016108876008611b6f565b6108919190613322565b905060008167ffffffffffffffff8111156108af576108ae612b48565b5b6040519080825280602002602001820160405280156108e857816020015b6108d56122cc565b8152602001906001900390816108cd5790505b5090506000600190505b8263ffffffff168163ffffffff1611610b2757600360008263ffffffff1663ffffffff1681526020019081526020016000206040518060c00160405290816000820160009054906101000a900463ffffffff1663ffffffff1663ffffffff16815260200160018201805461096590613385565b80601f016020809104026020016040519081016040528092919081815260200182805461099190613385565b80156109de5780601f106109b3576101008083540402835291602001916109de565b820191906000526020600020905b8154815290600101906020018083116109c157829003601f168201915b505050505081526020016002820180546109f790613385565b80601f0160208091040260200160405190810160405280929190818152602001828054610a2390613385565b8015610a705780601f10610a4557610100808354040283529160200191610a70565b820191906000526020600020905b815481529060010190602001808311610a5357829003601f168201915b505050505081526020016003820160009054906101000a900460ff166009811115610a9e57610a9d61297f565b5b6009811115610ab057610aaf61297f565b5b8152602001600482015481526020016005820160009054906101000a900463ffffffff1663ffffffff1663ffffffff168152505082600183610af291906133b6565b63ffffffff1681518110610b0957610b086131a5565b5b60200260200101819052508080610b1f906133ee565b9150506108f2565b50809250505090565b6000610b3a611af1565b6000610b466008611b6f565b9050610b526008611b7d565b60006040518060c001604052808363ffffffff168152602001898152602001888152602001876009811115610b8a57610b8961297f565b5b81526020018681526020018563ffffffff16815250905080600360008463ffffffff1663ffffffff16815260200190815260200160002060008201518160000160006101000a81548163ffffffff021916908363ffffffff1602179055506020820151816001019081610bfd91906135bc565b506040820151816002019081610c1391906135bc565b5060608201518160030160006101000a81548160ff02191690836009811115610c3f57610c3e61297f565b5b02179055506080820151816004015560a08201518160050160006101000a81548163ffffffff021916908363ffffffff1602179055509050508163ffffffff167ff378b71e8b598913f411e89b21138062426d7c60d8f40d78370b2fc233c3a17e8987604051610cb092919061368e565b60405180910390a2819250505095945050505050565b60076020528160005260406000208181548110610ce257600080fd5b90600052602060002001600091509150505481565b610cff611af1565b610d096000611b93565b565b6004602052816000526040600020602052806000526040600020600091509150508060000160009054906101000a900463ffffffff16908060000160049054906101000a900463ffffffff16908060000160089054906101000a900460ff16908060000160099054906101000a900467ffffffffffffffff16905084565b610d91611af1565b610d9c838383611c57565b505050565b60008060009054906101000a900473ffffffffffffffffffffffffffffffffffffffff16905090565b606060006001610dda6008611b6f565b610de49190613322565b905060008167ffffffffffffffff811115610e0257610e01612b48565b5b604051908082528060200260200182016040528015610e3b57816020015b610e28612320565b815260200190600190039081610e205790505b5090506000600190505b8263ffffffff168163ffffffff1611610f9b57600460008673ffffffffffffffffffffffffffffffffffffffff1673ffffffffffffffffffffffffffffffffffffffff16815260200190815260200160002060008263ffffffff1663ffffffff1681526020019081526020016000206040518060800160405290816000820160009054906101000a900463ffffffff1663ffffffff1663ffffffff1681526020016000820160049054906101000a900463ffffffff1663ffffffff1663ffffffff1681526020016000820160089054906101000a900460ff161515151581526020016000820160099054906101000a900467ffffffffffffffff1667ffffffffffffffff1667ffffffffffffffff168152505082600183610f6691906133b6565b63ffffffff1681518110610f7d57610f7c6131a5565b5b60200260200101819052508080610f93906133ee565b915050610e45565b508092505050919050565b600a5481565b600b5481565b60036020528060005260406000206000915090508060000160009054906101000a900463ffffffff1690806001018054610feb90613385565b80601f016020809104026020016040519081016040528092919081815260200182805461101790613385565b80156110645780601f1061103957610100808354040283529160200191611064565b820191906000526020600020905b81548152906001019060200180831161104757829003601f168201915b50505050509080600201805461107990613385565b80601f01602080910402602001604051908101604052809291908181526020018280546110a590613385565b80156110f25780601f106110c7576101008083540402835291602001916110f2565b820191906000526020600020905b8154815290600101906020018083116110d557829003601f168201915b5050505050908060030160009054906101000a900460ff16908060040154908060050160009054906101000a900463ffffffff16905086565b611133612360565b600560008373ffffffffffffffffffffffffffffffffffffffff1673ffffffffffffffffffffffffffffffffffffffff1681526020019081526020016000206040518060a00160405290816000820160009054906101000a900467ffffffffffffffff1667ffffffffffffffff1667ffffffffffffffff1681526020016000820160089054906101000a900463ffffffff1663ffffffff1663ffffffff16815260200160008201600c9054906101000a900463ffffffff1663ffffffff1663ffffffff1681526020016000820160109054906101000a900463ffffffff1663ffffffff1663ffffffff1681526020016000820160149054906101000a900463ffffffff1663ffffffff1663ffffffff16815250509050919050565b60056020528060005260406000206000915090508060000160009054906101000a900467ffffffffffffffff16908060000160089054906101000a900463ffffffff169080600001600c9054906101000a900463ffffffff16908060000160109054906101000a900463ffffffff16908060000160149054906101000a900463ffffffff16905085565b6112e0611af1565b600073ffffffffffffffffffffffffffffffffffffffff168173ffffffffffffffffffffffffffffffffffffffff160361134f576040517f08c379a000000000000000000000000000000000000000000000000000000000815260040161134690613730565b60405180910390fd5b61135881611b93565b50565b611363611eba565b60003390506000600660008481526020019081526020016000209050828160000154146113c5576040517f08c379a00000000000000000000000000000000000000000000000000000000081526004016113bc9061379c565b60405180910390fd5b8173ffffffffffffffffffffffffffffffffffffffff168160010160009054906101000a900473ffffffffffffffffffffffffffffffffffffffff1673ffffffffffffffffffffffffffffffffffffffff1614611457576040517f08c379a000000000000000000000000000000000000000000000000000000000815260040161144e90613808565b60405180910390fd5b8060030160089054906101000a900460ff16156114a9576040517f08c379a00000000000000000000000000000000000000000000000000000000081526004016114a090613874565b60405180910390fd5b60018160030160086101000a81548160ff021916908315150217905550428160030160096101000a81548167ffffffffffffffff021916908367ffffffffffffffff1602179055506114ff828260020154611f09565b828273ffffffffffffffffffffffffffffffffffffffff167fdfe866d7c08bef238dd5e4f60399e266a24c579cb669f3a39d012c99778ab1b4836002015460405161154a9190612fbf565b60405180910390a3505061155c611f9c565b50565b611567611eba565b60003390506000600560008373ffffffffffffffffffffffffffffffffffffffff1673ffffffffffffffffffffffffffffffffffffffff1681526020019081526020016000209050600042905060008260000160009054906101000a900467ffffffffffffffff1667ffffffffffffffff160361172a57808260000160006101000a81548167ffffffffffffffff021916908367ffffffffffffffff16021790555060018260000160086101000a81548163ffffffff021916908363ffffffff160217905550600182600001600c6101000a81548163ffffffff021916908363ffffffff16021790555060018260000160106101000a81548163ffffffff021916908363ffffffff16021790555060018260000160148282829054906101000a900463ffffffff166116999190613894565b92506101000a81548163ffffffff021916908363ffffffff1602179055506116c383600180611c57565b6116cf83600a54611f09565b8273ffffffffffffffffffffffffffffffffffffffff167f4016ae842e42cb70504c4330b88602472c06157f81bdfdbd8b5fa00dc075fa816001600a5460405161171a929190613907565b60405180910390a2505050611ae7565b60008260000160009054906101000a900467ffffffffffffffff16826117509190613930565b9050600960009054906101000a900463ffffffff1663ffffffff168167ffffffffffffffff1610156117b7576040517f08c379a00000000000000000000000000000000000000000000000000000000081526004016117ae906139de565b60405180910390fd5b600960049054906101000a900463ffffffff1663ffffffff168167ffffffffffffffff16116119355760018360000160088282829054906101000a900463ffffffff166118049190613894565b92506101000a81548163ffffffff021916908363ffffffff16021790555082600001600c9054906101000a900463ffffffff1663ffffffff168360000160089054906101000a900463ffffffff1663ffffffff161115611896578260000160089054906101000a900463ffffffff1683600001600c6101000a81548163ffffffff021916908363ffffffff1602179055505b60078360000160089054906101000a900463ffffffff1663ffffffff16036118ca576118c58460026007611c57565b611930565b601e8360000160089054906101000a900463ffffffff1663ffffffff16036118fe576118f9846003601e611c57565b61192f565b605a8360000160089054906101000a900463ffffffff1663ffffffff160361192e5761192d846004605a611c57565b5b5b5b61195a565b60018360000160086101000a81548163ffffffff021916908363ffffffff1602179055505b600060078460000160089054906101000a900463ffffffff1661197d9190613a2d565b63ffffffff1690506000600b54826119959190613a5e565b90506000606482600a546119a99190613a5e565b6119b39190613aa0565b600a546119c09190613ad1565b9050848660000160006101000a81548167ffffffffffffffff021916908367ffffffffffffffff16021790555060018660000160108282829054906101000a900463ffffffff16611a119190613894565b92506101000a81548163ffffffff021916908363ffffffff16021790555060018660000160148282829054906101000a900463ffffffff16611a539190613894565b92506101000a81548163ffffffff021916908363ffffffff160217905550611a7b8782611f09565b8673ffffffffffffffffffffffffffffffffffffffff167f4016ae842e42cb70504c4330b88602472c06157f81bdfdbd8b5fa00dc075fa818760000160089054906101000a900463ffffffff1683604051611ad7929190613b05565b60405180910390a2505050505050505b611aef611f9c565b565b611af9611fa5565b73ffffffffffffffffffffffffffffffffffffffff16611b17610da1565b73ffffffffffffffffffffffffffffffffffffffff1614611b6d576040517f08c379a0000000000000000000000000000000000000000000000000000000008152600401611b6490613b7a565b60405180910390fd5b565b600081600001549050919050565b6001816000016000828254019250508190555050565b60008060009054906101000a900473ffffffffffffffffffffffffffffffffffffffff169050816000806101000a81548173ffffffffffffffffffffffffffffffffffffffff021916908373ffffffffffffffffffffffffffffffffffffffff1602179055508173ffffffffffffffffffffffffffffffffffffffff168173ffffffffffffffffffffffffffffffffffffffff167f8be0079c531659141344cd1fd0a4f28419497f9722a3daafe3b4186f6b6457e060405160405180910390a35050565b6000600360008463ffffffff1663ffffffff16815260200190815260200160002090508263ffffffff168160000160009054906101000a900463ffffffff1663ffffffff1614611cdc576040517f08c379a0000000000000000000000000000000000000000000000000000000008152600401611cd390613be6565b60405180910390fd5b6000600460008673ffffffffffffffffffffffffffffffffffffffff1673ffffffffffffffffffffffffffffffffffffffff16815260200190815260200160002060008563ffffffff1663ffffffff168152602001908152602001600020905060008160000160009054906101000a900463ffffffff1663ffffffff1603611d8257838160000160006101000a81548163ffffffff021916908363ffffffff1602179055505b8060000160089054906101000a900460ff16611eb357828160000160048282829054906101000a900463ffffffff16611dbb9190613894565b92506101000a81548163ffffffff021916908363ffffffff1602179055508160050160009054906101000a900463ffffffff1663ffffffff168160000160049054906101000a900463ffffffff1663ffffffff1610611eb25760018160000160086101000a81548160ff021916908315150217905550428160000160096101000a81548167ffffffffffffffff021916908367ffffffffffffffff160217905550611e668585611fad565b508363ffffffff168573ffffffffffffffffffffffffffffffffffffffff167fc3130df7ae8a0f2a937c6db916a3b4fb1b21951ce80ec8f6bfdd63e1283a6e0460405160405180910390a35b5b5050505050565b600260015403611eff576040517f08c379a0000000000000000000000000000000000000000000000000000000008152600401611ef690613c52565b60405180910390fd5b6002600181905550565b600260009054906101000a900473ffffffffffffffffffffffffffffffffffffffff1673ffffffffffffffffffffffffffffffffffffffff166340c10f1983836040518363ffffffff1660e01b8152600401611f66929190613c72565b600060405180830381600087803b158015611f8057600080fd5b505af1158015611f94573d6000803e3d6000fd5b505050505050565b60018081905550565b600033905090565b600080600360008463ffffffff1663ffffffff16815260200190815260200160002090508263ffffffff168160000160009054906101000a900463ffffffff1663ffffffff1614612033576040517f08c379a000000000000000000000000000000000000000000000000000000000815260040161202a90613be6565b60405180910390fd5b600084844260405160200161204a93929190613d3a565b60405160208183030381529060405280519060200120905060006040518060e001604052808381526020018773ffffffffffffffffffffffffffffffffffffffff1681526020018663ffffffff168152602001846004015481526020014267ffffffffffffffff168152602001600015158152602001600067ffffffffffffffff16815250905080600660008481526020019081526020016000206000820151816000015560208201518160010160006101000a81548173ffffffffffffffffffffffffffffffffffffffff021916908373ffffffffffffffffffffffffffffffffffffffff16021790555060408201518160010160146101000a81548163ffffffff021916908363ffffffff1602179055506060820151816002015560808201518160030160006101000a81548167ffffffffffffffff021916908367ffffffffffffffff16021790555060a08201518160030160086101000a81548160ff02191690831515021790555060c08201518160030160096101000a81548167ffffffffffffffff021916908367ffffffffffffffff160217905550905050600760008773ffffffffffffffffffffffffffffffffffffffff1673ffffffffffffffffffffffffffffffffffffffff16815260200190815260200160002082908060018154018082558091505060019003906000526020600020016000909190919091505581935050505092915050565b6040518060e0016040528060008019168152602001600073ffffffffffffffffffffffffffffffffffffffff168152602001600063ffffffff16815260200160008152602001600067ffffffffffffffff168152602001600015158152602001600067ffffffffffffffff1681525090565b6040518060c00160405280600063ffffffff1681526020016060815260200160608152602001600060098111156123065761230561297f565b5b815260200160008152602001600063ffffffff1681525090565b6040518060800160405280600063ffffffff168152602001600063ffffffff168152602001600015158152602001600067ffffffffffffffff1681525090565b6040518060a00160405280600067ffffffffffffffff168152602001600063ffffffff168152602001600063ffffffff168152602001600063ffffffff168152602001600063ffffffff1681525090565b6000604051905090565b600080fd5b600080fd5b6000819050919050565b6123d8816123c5565b81146123e357600080fd5b50565b6000813590506123f5816123cf565b92915050565b600060208284031215612411576124106123bb565b5b600061241f848285016123e6565b91505092915050565b612431816123c5565b82525050565b600073ffffffffffffffffffffffffffffffffffffffff82169050919050565b600061246282612437565b9050919050565b61247281612457565b82525050565b600063ffffffff82169050919050565b61249181612478565b82525050565b6000819050919050565b6124aa81612497565b82525050565b600067ffffffffffffffff82169050919050565b6124cd816124b0565b82525050565b60008115159050919050565b6124e8816124d3565b82525050565b600060e082019050612503600083018a612428565b6125106020830189612469565b61251d6040830188612488565b61252a60608301876124a1565b61253760808301866124c4565b61254460a08301856124df565b61255160c08301846124c4565b98975050505050505050565b61256681612457565b811461257157600080fd5b50565b6000813590506125838161255d565b92915050565b60006020828403121561259f5761259e6123bb565b5b60006125ad84828501612574565b91505092915050565b600081519050919050565b600082825260208201905092915050565b6000819050602082019050919050565b6125eb816123c5565b82525050565b6125fa81612457565b82525050565b61260981612478565b82525050565b61261881612497565b82525050565b612627816124b0565b82525050565b612636816124d3565b82525050565b60e08201600082015161265260008501826125e2565b50602082015161266560208501826125f1565b5060408201516126786040850182612600565b50606082015161268b606085018261260f565b50608082015161269e608085018261261e565b5060a08201516126b160a085018261262d565b5060c08201516126c460c085018261261e565b50505050565b60006126d6838361263c565b60e08301905092915050565b6000602082019050919050565b60006126fa826125b6565b61270481856125c1565b935061270f836125d2565b8060005b8381101561274057815161272788826126ca565b9750612732836126e2565b925050600181019050612713565b5085935050505092915050565b6000602082019050818103600083015261276781846126ef565b905092915050565b60006020820190506127846000830184612488565b92915050565b6000819050919050565b60006127af6127aa6127a584612437565b61278a565b612437565b9050919050565b60006127c182612794565b9050919050565b60006127d3826127b6565b9050919050565b6127e3816127c8565b82525050565b60006020820190506127fe60008301846127da565b92915050565b61280d81612478565b811461281857600080fd5b50565b60008135905061282a81612804565b92915050565b61283981612497565b811461284457600080fd5b50565b60008135905061285681612830565b92915050565b60008060008060808587031215612876576128756123bb565b5b60006128848782880161281b565b94505060206128958782880161281b565b93505060406128a687828801612847565b92505060606128b787828801612847565b91505092959194509250565b600081519050919050565b600082825260208201905092915050565b6000819050602082019050919050565b600081519050919050565b600082825260208201905092915050565b60005b8381101561292957808201518184015260208101905061290e565b60008484015250505050565b6000601f19601f8301169050919050565b6000612951826128ef565b61295b81856128fa565b935061296b81856020860161290b565b61297481612935565b840191505092915050565b7f4e487b7100000000000000000000000000000000000000000000000000000000600052602160045260246000fd5b600a81106129bf576129be61297f565b5b50565b60008190506129d0826129ae565b919050565b60006129e0826129c2565b9050919050565b6129f0816129d5565b82525050565b600060c083016000830151612a0e6000860182612600565b5060208301518482036020860152612a268282612946565b91505060408301518482036040860152612a408282612946565b9150506060830151612a5560608601826129e7565b506080830151612a68608086018261260f565b5060a0830151612a7b60a0860182612600565b508091505092915050565b6000612a9283836129f6565b905092915050565b6000602082019050919050565b6000612ab2826128c3565b612abc81856128ce565b935083602082028501612ace856128df565b8060005b85811015612b0a5784840389528151612aeb8582612a86565b9450612af683612a9a565b925060208a01995050600181019050612ad2565b50829750879550505050505092915050565b60006020820190508181036000830152612b368184612aa7565b905092915050565b600080fd5b600080fd5b7f4e487b7100000000000000000000000000000000000000000000000000000000600052604160045260246000fd5b612b8082612935565b810181811067ffffffffffffffff82111715612b9f57612b9e612b48565b5b80604052505050565b6000612bb26123b1565b9050612bbe8282612b77565b919050565b600067ffffffffffffffff821115612bde57612bdd612b48565b5b612be782612935565b9050602081019050919050565b82818337600083830152505050565b6000612c16612c1184612bc3565b612ba8565b905082815260208101848484011115612c3257612c31612b43565b5b612c3d848285612bf4565b509392505050565b600082601f830112612c5a57612c59612b3e565b5b8135612c6a848260208601612c03565b91505092915050565b600a8110612c8057600080fd5b50565b600081359050612c9281612c73565b92915050565b600080600080600060a08688031215612cb457612cb36123bb565b5b600086013567ffffffffffffffff811115612cd257612cd16123c0565b5b612cde88828901612c45565b955050602086013567ffffffffffffffff811115612cff57612cfe6123c0565b5b612d0b88828901612c45565b9450506040612d1c88828901612c83565b9350506060612d2d88828901612847565b9250506080612d3e8882890161281b565b9150509295509295909350565b60008060408385031215612d6257612d616123bb565b5b6000612d7085828601612574565b9250506020612d8185828601612847565b9150509250929050565b6000602082019050612da06000830184612428565b92915050565b60008060408385031215612dbd57612dbc6123bb565b5b6000612dcb85828601612574565b9250506020612ddc8582860161281b565b9150509250929050565b6000608082019050612dfb6000830187612488565b612e086020830186612488565b612e1560408301856124df565b612e2260608301846124c4565b95945050505050565b600080600060608486031215612e4457612e436123bb565b5b6000612e5286828701612574565b9350506020612e638682870161281b565b9250506040612e748682870161281b565b9150509250925092565b6000602082019050612e936000830184612469565b92915050565b600081519050919050565b600082825260208201905092915050565b6000819050602082019050919050565b608082016000820151612edb6000850182612600565b506020820151612eee6020850182612600565b506040820151612f01604085018261262d565b506060820151612f14606085018261261e565b50505050565b6000612f268383612ec5565b60808301905092915050565b6000602082019050919050565b6000612f4a82612e99565b612f548185612ea4565b9350612f5f83612eb5565b8060005b83811015612f90578151612f778882612f1a565b9750612f8283612f32565b925050600181019050612f63565b5085935050505092915050565b60006020820190508181036000830152612fb78184612f3f565b905092915050565b6000602082019050612fd460008301846124a1565b92915050565b600060208284031215612ff057612fef6123bb565b5b6000612ffe8482850161281b565b91505092915050565b600082825260208201905092915050565b6000613023826128ef565b61302d8185613007565b935061303d81856020860161290b565b61304681612935565b840191505092915050565b61305a816129d5565b82525050565b600060c0820190506130756000830189612488565b81810360208301526130878188613018565b9050818103604083015261309b8187613018565b90506130aa6060830186613051565b6130b760808301856124a1565b6130c460a0830184612488565b979650505050505050565b60a0820160008201516130e5600085018261261e565b5060208201516130f86020850182612600565b50604082015161310b6040850182612600565b50606082015161311e6060850182612600565b5060808201516131316080850182612600565b50505050565b600060a08201905061314c60008301846130cf565b92915050565b600060a08201905061316760008301886124c4565b6131746020830187612488565b6131816040830186612488565b61318e6060830185612488565b61319b6080830184612488565b9695505050505050565b7f4e487b7100000000000000000000000000000000000000000000000000000000600052603260045260246000fd5b7f4e487b7100000000000000000000000000000000000000000000000000000000600052601160045260246000fd5b600061320e82612497565b91507fffffffffffffffffffffffffffffffffffffffffffffffffffffffffffffffff82036132405761323f6131d4565b5b600182019050919050565b7f4d696e20696e74657276616c206d757374206265206c657373207468616e206d60008201527f617820696e74657276616c000000000000000000000000000000000000000000602082015250565b60006132a7602b83613007565b91506132b28261324b565b604082019050919050565b600060208201905081810360008301526132d68161329a565b9050919050565b60006080820190506132f26000830187612488565b6132ff6020830186612488565b61330c60408301856124a1565b61331960608301846124a1565b95945050505050565b600061332d82612497565b915061333883612497565b92508282039050818111156133505761334f6131d4565b5b92915050565b7f4e487b7100000000000000000000000000000000000000000000000000000000600052602260045260246000fd5b6000600282049050600182168061339d57607f821691505b6020821081036133b0576133af613356565b5b50919050565b60006133c182612478565b91506133cc83612478565b9250828203905063ffffffff8111156133e8576133e76131d4565b5b92915050565b60006133f982612478565b915063ffffffff820361340f5761340e6131d4565b5b600182019050919050565b60008190508160005260206000209050919050565b60006020601f8301049050919050565b600082821b905092915050565b60006008830261347c7fffffffffffffffffffffffffffffffffffffffffffffffffffffffffffffffff8261343f565b613486868361343f565b95508019841693508086168417925050509392505050565b60006134b96134b46134af84612497565b61278a565b612497565b9050919050565b6000819050919050565b6134d38361349e565b6134e76134df826134c0565b84845461344c565b825550505050565b600090565b6134fc6134ef565b6135078184846134ca565b505050565b5b8181101561352b576135206000826134f4565b60018101905061350d565b5050565b601f821115613570576135418161341a565b61354a8461342f565b81016020851015613559578190505b61356d6135658561342f565b83018261350c565b50505b505050565b600082821c905092915050565b600061359360001984600802613575565b1980831691505092915050565b60006135ac8383613582565b9150826002028217905092915050565b6135c5826128ef565b67ffffffffffffffff8111156135de576135dd612b48565b5b6135e88254613385565b6135f382828561352f565b600060209050601f8311600181146136265760008415613614578287015190505b61361e85826135a0565b865550613686565b601f1984166136348661341a565b60005b8281101561365c57848901518255600182019150602085019450602081019050613637565b868310156136795784890151613675601f891682613582565b8355505b6001600288020188555050505b505050505050565b600060408201905081810360008301526136a88185613018565b90506136b760208301846124a1565b9392505050565b7f4f776e61626c653a206e6577206f776e657220697320746865207a65726f206160008201527f6464726573730000000000000000000000000000000000000000000000000000602082015250565b600061371a602683613007565b9150613725826136be565b604082019050919050565b600060208201905081810360008301526137498161370d565b9050919050565b7f526577617264206e6f7420666f756e6400000000000000000000000000000000600082015250565b6000613786601083613007565b915061379182613750565b602082019050919050565b600060208201905081810360008301526137b581613779565b9050919050565b7f4e6f7420796f75722072657761726420746f20636c61696d0000000000000000600082015250565b60006137f2601883613007565b91506137fd826137bc565b602082019050919050565b60006020820190508181036000830152613821816137e5565b9050919050565b7f52657761726420616c726561647920636c61696d656400000000000000000000600082015250565b600061385e601683613007565b915061386982613828565b602082019050919050565b6000602082019050818103600083015261388d81613851565b9050919050565b600061389f82612478565b91506138aa83612478565b9250828201905063ffffffff8111156138c6576138c56131d4565b5b92915050565b6000819050919050565b60006138f16138ec6138e7846138cc565b61278a565b612478565b9050919050565b613901816138d6565b82525050565b600060408201905061391c60008301856138f8565b61392960208301846124a1565b9392505050565b600061393b826124b0565b9150613946836124b0565b9250828203905067ffffffffffffffff811115613966576139656131d4565b5b92915050565b7f43616e6e6f7420636865636b20696e207965742c2074727920616761696e206c60008201527f6174657200000000000000000000000000000000000000000000000000000000602082015250565b60006139c8602483613007565b91506139d38261396c565b604082019050919050565b600060208201905081810360008301526139f7816139bb565b9050919050565b7f4e487b7100000000000000000000000000000000000000000000000000000000600052601260045260246000fd5b6000613a3882612478565b9150613a4383612478565b925082613a5357613a526139fe565b5b828204905092915050565b6000613a6982612497565b9150613a7483612497565b9250828202613a8281612497565b91508282048414831517613a9957613a986131d4565b5b5092915050565b6000613aab82612497565b9150613ab683612497565b925082613ac657613ac56139fe565b5b828204905092915050565b6000613adc82612497565b9150613ae783612497565b9250828201905080821115613aff57613afe6131d4565b5b92915050565b6000604082019050613b1a6000830185612488565b613b2760208301846124a1565b9392505050565b7f4f776e61626c653a2063616c6c6572206973206e6f7420746865206f776e6572600082015250565b6000613b64602083613007565b9150613b6f82613b2e565b602082019050919050565b60006020820190508181036000830152613b9381613b57565b9050919050565b7f416368696576656d656e74206e6f7420666f756e640000000000000000000000600082015250565b6000613bd0601583613007565b9150613bdb82613b9a565b602082019050919050565b60006020820190508181036000830152613bff81613bc3565b9050919050565b7f5265656e7472616e637947756172643a207265656e7472616e742063616c6c00600082015250565b6000613c3c601f83613007565b9150613c4782613c06565b602082019050919050565b60006020820190508181036000830152613c6b81613c2f565b9050919050565b6000604082019050613c876000830185612469565b613c9460208301846124a1565b9392505050565b60008160601b9050919050565b6000613cb382613c9b565b9050919050565b6000613cc582613ca8565b9050919050565b613cdd613cd882612457565b613cba565b82525050565b60008160e01b9050919050565b6000613cfb82613ce3565b9050919050565b613d13613d0e82612478565b613cf0565b82525050565b6000819050919050565b613d34613d2f82612497565b613d19565b82525050565b6000613d468286613ccc565b601482019150613d568285613d02565b600482019150613d668284613d23565b60208201915081905094935050505056fea2646970667358221220b69311ae4ec2b947580ffc4a9c21503bc1aaab6de600c94609d622c443300cf464736f6c63430008130033436f6d706c6574652074686520626173696320656475636174696f6e616c20636f75727365",
  "linkReferences": {},
  "deployedLinkReferences": {}
}